:02000000E729EE
:06000600000000000800EC
:0E000C00213083120313FD00FD0B0A280800AB
:10001A000F3083120313FC004730FD00FD0B132839
:0A002A00FC0B132800000000080082
:1000340083120313F801F9011030FC00710DF80D5F
:10004400F90D7408F8027508031C750FF9020318FA
:1000540032287408F80775080318750FF907031098
:0A006400F00DF10DFC0B2028080040
:10006E0083160313DF1B3E28831286134028831248
:10007E00861783165F1B46288312061348288312A1
:10008E0006178316DF1A4E28831286125028831203
:10009E00861683165F1A5628831206125828831264
:1000AE0006166F185C2886145D2886100615032028
:1000BE0006118316DF1966288312861368288312A9
:1000CE00861783165F196E28831206137028831203
:1000DE0006178316DF187628831286127828831265
:1000EE00861683165F187E288312061280288312C6
:1000FE0006166F1884288614852886100615032088
:0E010E0006116F1C8C280D208D28062008007D
:10011C00831203136F1083165A08DF0037206F14F5
:02012C000800C9
:0E012E008316031340088A003F088200080071
:10013C0083160313DD0105305D020318AC285D083E
:10014C005C07840020308000DD0AA1285D085C0774
:10015C0084008001DD035D085C07DE000A30F400DA
:10016C00F5015A08F0005B08F1001A207808F0003D
:10017C007908F1003030F00783165E0884007008AF
:10018C0080000A30F400F5015A08F0005B08F10019
:10019C001A2070088316DA007108DB000030710633
:1001AC00031DDA2800307006031DDD28DF28DD036F
:0401BC00B12808005E
:1001C00083160313D601D7015108D8005208D9006D
:1001D00080305206F00080307002031DF12800309C
:1001E00051020318FF280130D6000030D700510813
:1001F000003CD8005208031C013ED901D90258081E
:10020000DA005908DB005308DC009E200630D400D9
:100210000030D5005508003C031D10295408003C4F
:1002200003182B2954085307F20001305402F00040
:100230000030031C013E5502F10070085307840092
:100240000008F00072088400700880000130D402B9
:10025000031CD5030A295308840020308000560867
:10026000570403194929D401D501540853078400C0
:100270000008203A031D4029D40A0319D50A35295C
:100280000130D402031CD5035408530784002D30D9
:0402900080000800E2
:100294005C29803083160313D1006F29C030D1004C
:1002A4006F299430D1006F29D430D1006F29803068
:1002B400D1006F29831603135108013A03194B29FE
:1002C4005108023A031950295108033A03195329D2
:1002D4005108043A0319562959295203F0005108C8
:1002E400F0077008D1007008DF0037206F10831604
:1002F400D401540853078400000803198A295408B8
:10030400530784000008DA008E208316D40A7B2960
:0603140083126F140800C3
:10031A0097208A110A128000840ABF0A0319C00AA8
:08032A00F003031D8D290800FA
:1003320083160313061186100612861206138613FD
:1003420083120611861086130613861206120D20DA
:100352000D200D20861606160615032006110D2007
:100362000615032006110D200615032006110D2087
:1003720006120615032006110D200615032006118C
:10038200861286170615032006110D2086130616FF
:1003920006150320061106120615032006110D206C
:1003A20006150320061106160615032006110D2058
:1003B200061206150320061186170617861606165C
:0C03C2000615032006110D206F14080022
:1003CE003623831603138714071583128701992189
:1003DE0001308316DF0037200C308316DF00372004
:1003EE0001308316D1000130D2002030D3004A21D3
:1003FE000B30FB002630FC005D30FD00FD0B052AA6
:10040E00FC0B052AFB0B052A0000000001308316A9
:10041E00DF00372001308316D1000130D200AB301F
:10042E00D3004A2183163308D1003408D200C130DC
:10043E00D300E0200230D1000130D200C130D30011
:10044E004A21871C672A871C2D2A2A2A8316B30A5B
:10045E000319B40A34083E06031D372A3D08330635
:10046E00031D672A0130DF00372001308316D100CB
:10047E000130D200B530D3004A2102308316D100AC
:10048E000130D200A030D3004A210B30FB002630C1
:10049E00FC005D30FD00FD0B522AFC0B522AFB0BBB
:1004AE00522A0000000002308316D1000130D20023
:1004BE003A30D3004A2101308316B302031CB40331
:1004CE008312071DAA2A071D6D2A6A2A0130831678
:1004DE00B302031CB403340883123906031D7A2AAF
:1004EE00380883163306031DAA2A83160130DF004F
:1004FE00372001308316D1000130D2003030D300C6
:10050E004A2102308316D1000130D2004B30D30085
:10051E004A210B30FB002630FC005D30FD00FD0B48
:10052E00962AFC0B962AFB0B962A0000000002303E
:10053E008316D1000130D2005E30D3004A218316DB
:10054E00B30A0319B40A83160130D1000130D20068
:10055E005630D3004A2183163308D1003408D20016
:10056E00C130D300E0200230D1000130D200C130C2
:08057E00D3004A21282AC22AF9
:10066C00203084004F3083120313F000C8308316FF
:10067C00BF000230C0008D21A03084001F308312D7
:10068C00F00017308316BF000330C0008D21080026
:1005900056346F346C3475346D34653420344134E2
:1005A00064346A34753473347434653472340034AA
:1005B00056346F346C3475346D3465343A340034E9
:0405C00005340034CA
:1005C4002034203420342034203420342034203487
:1005D4002034203420342034203420342034203477
:0205E4000034E1
:1005E6004D3449344E34203456344F344C3455341B
:0605F6004D3445340034D1
:1005FC0056346F346C3475346D3465343A3400349D
:10060C00203420342034203420342034203420343E
:10061C00203420342034203420342034203420342E
:02062C00003498
:10062E004D3441345834203456344F344C345534D0
:06063E004D344534003488
:1006440056346F346C3475346D3465343A34003454
:040654000A34003430
:1006580056346F346C3475346D3465343A34003440
:040668001434003412
:02400E004A2F37
:00000001FF
